:100000000C946D000C9495000C9495000C94950044
:100010000C9495000C9495000C9495000C9495000C
:100020000C9495000C9495000C9495000C949500FC
:100030000C9495000C9495000C9495000C949500EC
:100040000C941E070C9495000C94EC060C94C606B8
:100050000C9495000C9495000C9495000C949500CC
:100060000C9495000C949500D302D902DF02E502AE
:10007000EB02F102F702600467046E0475047C046D
:100080009304830493048A04000000080002010022
:100090000003040700000000000000000000000052
:1000A000250028002B0000000000240027002A0063
:1000B000040404040404040402020202020203030E
:1000C0000303030301020408102040800102040816
:1000D0001020010204081020680711241FBECFEF72
:1000E000D8E0DEBFCDBF11E0A0E0B1E0ECE4FBE181
:1000F00002C005900D92A633B107D9F722E0A6E31E
:10010000B1E001C01D92A937B207E1F710E0CDE6DA
:10011000D0E004C02197FE010E94770DCC36D107B4
:10012000C9F70E9462080C94A40D0C94000090E0A2
:10013000FC01EC53FF4F2491FC01E055FF4F8491EB
:10014000882399F090E0880F991FFC01EA55FF4F32
:10015000A591B491FC01E456FF4F859194918FB71E
:10016000F894EC91E22BEC938FBF0895CF92DF923D
:10017000EF92FF920F931F93CF93DF936C017A015D
:100180008B01C0E0D0E0CE15DF0581F0D8016D9184
:100190008D01D601ED91FC910190F081E02DC60119
:1001A0000995892B11F02196EECF7E01C701DF91D1
:1001B000CF911F910F91FF90EF90DF90CF90089516
:1001C000089580E090E00895FC01538D448D252F23
:1001D00030E0842F90E0821B930B541710F0CF96E1
:1001E000089501970895FC01918D828D981761F013
:1001F000828DDF01A80FB11D5D968C91928D9F5F5E
:100200009F73928F90E008958FEF9FEF0895FC0108
:10021000918D828D981731F0828DE80FF11D858DBB
:1002200090E008958FEF9FEF0895FC01918D228D4E
:10023000892F90E0805C9F4F821B91098F739927D3
:1002400008958FE391E00E94150121E0892B09F4C4
:1002500020E0822F0895FC01848DDF01A80FB11DDD
:10026000A35ABF4F2C91848D90E001968F739927EC
:10027000848FA689B7892C93A089B1898C918370CA
:1002800080648C93938D848D981306C00288F389C3
:10029000E02D80818F7D80830895EF92FF920F93F0
:1002A0001F93CF93DF93EC0181E0888F9B8D8C8D22
:1002B000981305C0E889F989808185FD26C0F62E4E
:1002C0000B8D10E00F5F1F4F0F731127E02E8C8DE9
:1002D000E8120CC00FB607FCFACFE889F9898081D3
:1002E00085FFF5CFCE010E942B01F1CF8B8DFE0152
:1002F000E80FF11DE35AFF4FF0829FB7F8940B8F80
:10030000EA89FB89808180620AC09FB7F894EE89F0
:10031000FF896083E889F9898081837080648083A4
:100320009FBF81E090E0DF91CF911F910F91FF90EF
:10033000EF900895CF93DF93EC01888D8823C9F067
:10034000EA89FB89808185FD05C0A889B9898C91DE
:1003500086FD0FC00FB607FCF5CF808185FFF2CF79
:10036000A889B9898C9185FFEDCFCE010E942B0120
:10037000E7CFDF91CF91089580E090E0892B29F0BD
:100380000E94210181110C940000089590E0FC016D
:10039000E857FF4F2491FC01EC53FF4F3491FC01CF
:1003A000E055FF4FE491EE2309F43CC0222339F1DC
:1003B000233091F038F42130A9F0223001F584B5D2
:1003C0008F7D12C0273091F02830A1F02430B9F48D
:1003D000809180008F7D03C0809180008F77809313
:1003E00080000DC084B58F7784BD09C08091B000B6
:1003F0008F7703C08091B0008F7D8093B000F0E0D4
:10040000EE0FFF1FE456FF4FA591B4919FB7F894EC
:10041000611104C08C913095382302C0EC913E2BC1
:100420003C939FBF08953FB7F89480913B01909112
:100430003C01A0913D01B0913E0126B5A89B05C0AD
:100440002F3F19F00196A11DB11D3FBFBA2FA92F53
:10045000982F8827820F911DA11DB11DBC01CD01D0
:1004600042E0660F771F881F991F4A95D1F70895BC
:100470008F929F92AF92BF92CF92DF92EF92FF92B4
:100480000E9413024B015C0188EEC82E83E0D82E37
:10049000E12CF12C0E941302DC01CB01881999098F
:1004A000AA09BB09883E9340A105B10598F321E054
:1004B000C21AD108E108F10888EE880E83E0981E80
:1004C000A11CB11CC114D104E104F10419F7FF907F
:1004D000EF90DF90CF90BF90AF909F908F90089556
:1004E000CF93DF93FC012381222329F1EC01848146
:1004F0000E9497008D810E9497008B81843011F0BB
:10050000883029F48E810E9497008F8105C0833046
:1005100011F0863019F48E810E9497008FA58F3FCD
:1005200051F00E9497006EA581E068278FA5DF91AA
:10053000CF910C94C601DF91CF910895CF93DF93B3
:10054000FC0123812223A1F0EC010190F081E02D38
:100550000480F581E02D60E009958FA58F3F41F083
:100560000E9497006EA58FA5DF91CF910C94C601D4
:10057000DF91CF910895CF93DF934770552766277A
:100580007727FA013197EC01A881B981E730F105AD
:1005900020F4EC5CFF4F0C94770D1496ED91FC91D8
:1005A000159761E029C01496ED91FC91159765E0CF
:1005B00023C01496ED91FC91159764E01DC014962C
:1005C000ED91FC91159766E017C01496ED91FC91A2
:1005D000159762E011C01496ED91FC9115976AE0B1
:1005E0000BC01496ED91FC91159768E005C0149628
:1005F000ED91FC91159769E0DF91CF910994CF932C
:10060000DF93EC01CB01BA0126E030E040E050E09E
:100610000E94580D623071058105910559F18CF4E5
:100620006115710581059105F1F061307105810554
:100630009105C1F5E881F9810480F581E02D65E03F
:100640002DC0643071058105910511F1D4F065303C
:1006500071058105910531F5E881F9810480F58105
:10066000E02D66E01BC0E881F9810480F581E02D72
:1006700064E014C0E881F9810480F581E02D61E037
:100680000DC0E881F9810480F581E02D63E006C0AA
:10069000E881F9810480F581E02D62E0CE01DF91EF
:1006A000CF910994DF91CF91089543705527662724
:1006B0007727DC01ED91FC910480F581E02D42303B
:1006C00051056105710571F04330510561057105F2
:1006D00059F0413051056105710511F065E005C023
:1006E00066E003C06AE001C069E00994CF93DF933C
:1006F000EC01CB01BA0123E030E040E050E00E9481
:10070000580D613071058105910581F062307105E8
:100710008105910591F0672B682B692BC1F4E88165
:10072000F9810480F581E02D64E00DC0E881F98154
:100730000480F581E02D61E006C0E881F981048044
:10074000F581E02D62E0CE01DF91CF910994DF9138
:10075000CF9108954370552766277727DC01ED91E7
:10076000FC910480F581E02D423051056105710551
:1007700071F0433051056105710559F04130510563
:100780006105710511F062E005C063E003C061E03E
:1007900001C060E00994CF93DF93EC01E881F98117
:1007A0000480F581E02D8A81811102C060E001C0E2
:1007B00062E0CE010995E881F9810480F581E02DA0
:1007C0008A81811102C061E001C063E0CE01099518
:1007D0008CA59DA58230910538F0880F991F880F50
:1007E000991F05970197F1F7E881F9810480F58158
:1007F000E02D8A81811102C060E001C062E0CE017B
:10080000DF91CF910994CF93DF93EC0120E030E0AA
:10081000A9016C897D898E899F890E948B0C18168D
:100820001CF4E8A9F9A902C0EAA9FBA9DF91CF91BC
:100830000994CF92DF92EF92FF920F931F93CF9381
:10084000DF93EC019B81943041F0983031F093308C
:1008500031F0963021F012E003C014E001C013E043
:100860002496E12CF12CC62ED12C01E0C6010E2CD1
:1008700002C0959587950A94E2F76C8180FD602708
:1008800089910E94C6018FEFE81AF80AE11670F309
:10089000DF91CF911F910F91FF90EF90DF90CF905C
:1008A00008950F931F93DC011396EC910E2F10E027
:1008B00009301105C0F5F801E55CFF4F0C94770D88
:1008C000DC01ED91FC910084F185E02D29C0DC0173
:1008D000ED91FC910284F385E02D22C0DC01ED91C5
:1008E000FC910484F585E02D1BC0DC01ED91FC91A9
:1008F0000684F785E02D14C0DC01ED91FC910088A1
:10090000F189E02D0DC0DC01ED91FC910288F389A5
:10091000E02D06C0DC01ED91FC910488F589E02D05
:100920001F910F9109941F910F9108954F925F921B
:100930006F927F928F929F92AF92BF92CF92DF92EF
:10094000EF92FF920F931F93CF93DF93EC01C88830
:10095000D988EA88FB888C859D85AE85BF85C81AB5
:10096000D90AEA0AFB0A6C897D898E899F899B01D5
:10097000AC010E94900C4B015C016C8D7D8D8E8DC5
:100980009F8D9B01AC010E94C00A9B01AC01C50177
:10099000B4010E94310B0E94A30BC114D104E104E5
:1009A000F10499F462307105810591050CF076C06F
:1009B0001CA21DA21EA21FA21C8A1D8A1E8A1F8A9B
:1009C0001CAA1DAA1EAA1FAAEDC00CA91DA92EA90A
:1009D0003FA91C141D041E041F04FCF4101611066C
:1009E000120613064CF46C157D058E059F054CF51B
:1009F0002A81211153C025C001151105210531059A
:100A000009F44CC06C157D058E059F050CF046C0A1
:100A10008A81882309F442C036C0101611061206D6
:100A20001306ECF40027112798010C191D092E0953
:100A30003F0960177107820793071CF42A8122235C
:100A400069F19B01AC0188279927DC01821B930B7C
:100A5000A40BB50B8CAB9DABAEABBFAB1FC00115F0
:100A6000110521053105D1F08824992454018C18F1
:100A70009D08AE08BF08681579058A059B0574F4C2
:100A80008A8181110BC030952095109501951F4FDB
:100A90002F4F3F4F0CAB1DAB2EAB3FAB8CA89DA88F
:100AA000AEA8BFA881149104A104B10489F488AD53
:100AB00099ADAAADBBAD8CAF9DAFAEAFBFAF81E07E
:100AC0001C141D041E041F040CF080E08A833FC028
:100AD000CCACDDACEEACFFACA7019601C701B60112
:100AE0000E94C00A2B013C01C501B4010E94DB0B2E
:100AF00020E030E040E850E40E94900C20E030E03C
:100B000040E85FE30E94C00A9B01AC01C301B2014F
:100B10000E94310B9B01AC01C701B6010E94BF0AC4
:100B20003B016C01FE01E05CFF4FE080F18002813F
:100B300013819701A8010E948B0C181614F47301FD
:100B40008601C701D8018CAF9DAFAEAFBFAF3FEFFD
:100B5000831A930AA30AB30A8CAA9DAAAEAABFAAB3
:100B6000CCACDDACEEACFFACC701B6010E94AA0B69
:100B70006CA37DA38EA39FA3A701960160E074E2FE
:100B800084E799E40E94310B6C8B7D8B8E8B9F8B5D
:100B90002A81211107C0DC01CB01B0588C8B9D8BC1
:100BA000AE8BBF8BDF91CF911F910F91FF90EF9094
:100BB000DF90CF90BF90AF909F908F907F906F907D
:100BC0005F904F900895CF92DF92EF92FF92CF9374
:100BD000DF93EC0120E030E046E154E4688D798D4C
:100BE0008A8D9B8D0E942C0B882309F443C080E0E2
:100BF00090E0A6E1B4E4888F998FAA8FBB8F85E53A
:100C000095E5A0EDB4E4FE01E05CFF4F80839183A5
:100C1000A283B3838CA99DA9AEA9BFA918161906F2
:100C20001A061B063CF56C897D898E899F899B017C
:100C3000AC010E94900C6B017C016C8D7D8D8E8DC2
:100C40009F8D9B01AC010E94C00A9B01AC01C701B2
:100C5000B6010E94310B0E94A30B6CAB7DAB8EAB37
:100C60009FABCE01DF91CF91FF90EF90DF90CF90BF
:100C70000C949604DF91CF91FF90EF90DF90CF908E
:100C800008950E949F0D4F925F926F927F928F9274
:100C90009F92AF92BF92CF92DF92EF92FF92CF934B
:100CA000DF93EC016A017B0120E030E0A901C7017C
:100CB000B6010E942C0B87FF04C0F7FAF094F7F8F6
:100CC000F0948C8C9D8CAE8CBF8CA7019601C501D5
:100CD000B4010E942C0B882309F449C06CA97DA99A
:100CE0008EA99FA90E94DB0B2B013C01A701960155
:100CF000C501B4010E94310B9B01AC01C301B201DB
:100D00000E94900C0E94A30B6CAB7DAB8EAB9FAB93
:100D1000A701960160E070E080E090E40E94310B52
:100D20000E94030D26E53EE04DE25FE30E94900C39
:100D300020E034E244E759E40E94900C68AF79AFB8
:100D40008AAF9BAFCC8EDD8EEE8EFF8ECE01DF9113
:100D5000CF91FF90EF90DF90CF90BF90AF909F909A
:100D60008F907F906F905F904F900C949604DF91DE
:100D7000CF91FF90EF90DF90CF90BF90AF909F907A
:100D80008F907F906F905F904F9008951F920F9279
:100D90000FB60F9211242F933F934F935F936F934E
:100DA0007F938F939F93AF93BF93EF93FF938FE3C3
:100DB00091E00E942B01FF91EF91BF91AF919F9124
:100DC0008F917F916F915F914F913F912F910F90F4
:100DD0000FBE0F901F9018951F920F920FB60F9293
:100DE00011242F938F939F93EF93FF93E0914F01E3
:100DF000F09150018081E0915501F091560182FD02
:100E000012C09081809158018F5F8F73209159019A
:100E1000821751F0E0915801F0E0E15CFE4F958FB0
:100E20008093580101C08081FF91EF919F918F9134
:100E30002F910F900FBE0F901F9018951F920F9239
:100E40000FB60F9211242F933F938F939F93AF93DD
:100E5000BF938091370190913801A0913901B091F1
:100E60003A013091360123E0230F2D3720F401960B
:100E7000A11DB11D05C026E8230F0296A11DB11DBD
:100E8000209336018093370190933801A093390164
:100E9000B0933A0180913B0190913C01A0913D01BA
:100EA000B0913E010196A11DB11D80933B0190932D
:100EB0003C01A0933D01B0933E01BF91AF919F9142
:100EC0008F913F912F910F900FBE0F901F9018950B
:100ED0008F929F92AF92BF92CF92DF92EF92FF924A
:100EE0000F931F93CF93DF93EFE3F1E0138212820E
:100EF00088EE93E0A0E0B0E084839583A683B78377
:100F000084E091E09183808385EC90E095878487ED
:100F100084EC90E09787868780EC90E0918B808BC3
:100F200081EC90E0938B828B82EC90E0958B848BAC
:100F300086EC90E0978B868B118E128E138E148E1A
:100F4000E5E3F2E006E111E0118300838824839455
:100F500083821486158616861786108A118A128A4D
:100F6000138A148A158A168A178AC12CD12C80E814
:100F7000E82E8FE3F82EC08ED18EE28EF38E148E83
:100F8000158E168E178EC0A2D1A2E2A2F3A214A2D1
:100F900015A216A217A2C1E0D0E0D5A7C4A7992434
:100FA0009A9497A610A611A612A613A682E084838F
:100FB00095E0B92EB58224E0A22EA682B78216A6AD
:100FC00014AA15AA16AA17AA10AE11AE12AE13AE25
:100FD00014AE15AE16AE17AEC0927502D092760260
:100FE000E0927702F09278021282108611861286C1
:100FF0001386CF010E947002B701A60185E392E03B
:101000000E944306E1EFF1E011830083838214869E
:10101000158616861786108A118A128A138A148AF0
:10102000158A168A178AC08ED18EE28EF38E148EA0
:10103000158E168E178EC0A2D1A2E2A2F3A214A220
:1010400015A216A217A2D5A7C4A797A610A611A6E7
:1010500012A613A683E0848386E08583A682B782E6
:1010600016A614AA15AA16AA17AA10AE11AE12AE89
:1010700013AE14AE15AE16AE17AEC0923102D092BA
:101080003202E0923302F09234021282108611860C
:1010900012861386CF010E947002B701A60181EF6C
:1010A00091E00E9443061092F001DF91CF911F91D1
:1010B0000F91FF90EF90DF90CF90BF90AF909F90F7
:1010C0008F900895CF93DF93CDB7DEB72B970FB6F0
:1010D000F894DEBF0FBECDBF789484B5826084BD26
:1010E00084B5816084BD85B5826085BD85B581602C
:1010F00085BD80916E00816080936E0010928100AA
:101100008091810082608093810080918100816064
:101110008093810080918000816080938000809125
:10112000B10084608093B1008091B00081608093B1
:10113000B00080917A00846080937A0080917A0078
:10114000826080937A0080917A00816080937A0037
:1011500080917A00806880937A001092C100E091BB
:101160004F01F091500182E08083E0914B01F091BA
:101170004C011082E0914D01F0914E018FEC808383
:1011800010925701E0915301F091540186E0808361
:10119000E0915101F0915201808180618083E09162
:1011A0005101F0915201808188608083E09151016A
:1011B000F0915201808180688083E0915101F0912B
:1011C000520180818F7D808388E00E94970060E0DB
:1011D00088E00E94C60185E392E00E94E30540E0BA
:1011E00050E066E973E485E392E00E94430681EFF4
:1011F00091E00E94E30540E050E066E973E481EF8E
:1012000091E00E944306E091F001EA3068F481E049
:101210008E0F8093F001F0E0EE0FFF1FE452FE4FBF
:1012200085E392E091838083E091F001EA3068F4F5
:1012300081E08E0F8093F001F0E0EE0FFF1FE4528B
:10124000FE4F81EF91E09183808380EB94E0A0E0FA
:10125000B0E089839A83AB83BC838D839E83AF8305
:10126000B887A090F0018E010F5F1F4F3CEDC32E99
:1012700031E0D32EB12C19861A861B86612CAB1453
:10128000C9F1F80181919191A191B1918F01F6017C
:10129000E190F1906F01F7012485358546855785EA
:1012A000BC01CD01621B730B840B950B97FF07C02C
:1012B00090958095709561957F4F8F4F9F4F0E94BD
:1012C000DB0BD70158962D913D914D915C915B9729
:1012D0000E94310B4B017C0129853A854B85562DA7
:1012E0000E948B0C181624F489869A86EB866F2C44
:1012F000B394C5CF20E030E0A90169857A858B855C
:10130000962D0E948B0C18160CF0B9C0B12C809150
:10131000F001B81608F0B3C00B2D10E0E1E0F0E0EA
:10132000EC0FFD1FB4E0BB9EE00DF11D11242080E9
:10133000318042805380000F111FF801E452FE4FAC
:10134000E080F180F70184859585A685B785A201A7
:101350009101281B390B4A0B5B0BCA01B9010E9492
:10136000DB0B29853A854B85562D0E94310B762E55
:10137000872E982EA92EF70180899189A289B38999
:10138000281639064A065B0639F0208A318A428AD5
:10139000538AC7010E949604F801E452FE4F00816F
:1013A0001181F8012489358946895789672D782D5F
:1013B000892D9A2D0E942C0B882309F45EC0D80138
:1013C0005896CD90DD90ED90FC905B97160127012B
:1013D00057FA509457F85094A2019101672D782D37
:1013E000892D9A2D0E942C0B87FD0FC0A701960115
:1013F000672D782D892D9A2D0E948B0C18163CF0A4
:10140000C72CD82CE92CFA2C02C07201610120E013
:1014100030E0A901C701B6010E942C0B811106C062
:10142000F80114A215A216A217A220C0A7019601C6
:1014300060E074E284E799E40E94310B9F770E9498
:10144000AA0BD80194966D937D938D939C93979757
:10145000AA24A39420E030E0A901C701B6010E94AC
:101460008B0C18160CF0A12CF801A282D80154960E
:10147000CD92DD92ED92FC925797B39448CF80E0E5
:10148000F12C9091F001F91608F060C0EF2DF0E01A
:10149000EE0FFF1FE452FE4F00811181F80180889A
:1014A0009188A288B388448555856685778584169A
:1014B0009506A606B70609F447C084A195A1A6A182
:1014C000B7A1892B8A2B8B2BF1F10E9413024B01C0
:1014D0005C01F80180A591A5A2A5B3A5B501A40161
:1014E000481B590B6A0B7B0B84A195A1A6A1B7A140
:1014F000481759076A077B0730F122818485958553
:10150000A685B785222321F00196A11DB11D04C037
:101510000197A109B109F80184879587A687B78744
:10152000D8011C964D915D916D917C911F97ED9125
:10153000FC910680F781E02DC8010995F80180A68D
:1015400091A6A2A6B3A681E0F3949BCF811197CF79
:101550000E94380245E050E06CE271E08FE391E0D8
:101560000E94B60042E050E062E371E08FE391E058
:101570000E94B6000E9438020E94BC01EBCF505876
:10158000BB27AA270E94D70A0C94510C0E94430C37
:1015900038F00E944A0C20F039F49F3F19F426F4E9
:1015A0000C94400C0EF4E095E7FB0C943A0CE92FF8
:1015B0000E94620C58F3BA176207730784079507F5
:1015C00020F079F4A6F50C94840C0EF4E0950B2E23
:1015D000BA2FA02D0B01B90190010C01CA01A00185
:1015E0001124FF27591B99F0593F50F4503E68F1E0
:1015F0001A16F040A22F232F342F4427585FF3CF21
:10160000469537952795A795F0405395C9F77EF4F1
:101610001F16BA0B620B730B840BBAF09150A1F03A
:10162000FF0FBB1F661F771F881FC2F70EC0BA0FC0
:10163000621F731F841F48F4879577956795B79548
:10164000F7959E3F08F0B0CF9395880F08F0992743
:10165000EE0F9795879508950E94160C08F481E087
:1016600008950E94450B0C94510C0E944A0C58F0AE
:101670000E94430C40F029F45F3F29F00C943A0C8F
:1016800051110C94850C0C94400C0E94620C68F370
:101690009923B1F3552391F3951B550BBB27AA272B
:1016A00062177307840738F09F5F5F4F220F331F65
:1016B000441FAA1FA9F335D00E2E3AF0E0E832D02D
:1016C00091505040E695001CCAF72BD0FE2F29D030
:1016D000660F771F881FBB1F261737074807AB0702
:1016E000B0E809F0BB0B802DBF01FF2793585F4F77
:1016F0003AF09E3F510578F00C943A0C0C94850C0E
:101700005F3FE4F3983ED4F3869577956795B79558
:10171000F7959F5FC9F7880F911D9695879597F963
:101720000895E1E0660F771F881FBB1F62177307DC
:101730008407BA0720F0621B730B840BBA0BEE1FF1
:1017400088F7E09508950E94AA0B6894B1110C9453
:10175000850C08950E946A0C88F09F5798F0B92F65
:101760009927B751B0F0E1F0660F771F881F991FD6
:101770001AF0BA95C9F714C0B13091F00E94840CE8
:10178000B1E008950C94840C672F782F8827B85FF8
:1017900039F0B93FCCF3869577956795B395D9F72E
:1017A0003EF490958095709561957F4F8F4F9F4F38
:1017B0000895E89409C097FB3EF490958095709544
:1017C00061957F4F8F4F9F4F9923A9F0F92F96E98D
:1017D000BB279395F695879577956795B795F11102
:1017E000F8CFFAF4BB0F11F460FF1BC06F5F7F4F9F
:1017F0008F4F9F4F16C0882311F096E911C07723B1
:1018000021F09EE8872F762F05C0662371F096E8B9
:10181000862F70E060E02AF09A95660F771F881F88
:10182000DAF7880F9695879597F90895990F00082C
:10183000550FAA0BE0E8FEEF16161706E807F907A2
:10184000C0F012161306E407F50798F0621B730B3D
:10185000840B950B39F40A2661F0232B242B252BBE
:1018600021F408950A2609F4A140A6958FEF811D61
:10187000811D089597F99F6780E870E060E0089502
:101880009FEF80EC089500240A9416161706180698
:101890000906089500240A94121613061406050674
:1018A0000895092E0394000C11F4882352F0BB0F05
:1018B00040F4BF2B11F460FF04C06F5F7F4F8F4F68
:1018C0009F4F089557FD9058440F551F59F05F3FA3
:1018D00071F04795880F97FB991F61F09F3F79F052
:1018E00087950895121613061406551FF2CF4695D4
:1018F000F1DF08C0161617061806991FF1CF869556
:101900007105610508940895E894BB276627772739
:10191000CB0197F908950E94160C08F48FEF0895F3
:101920000E94A30C0C94510C0E94430C38F00E94AE
:101930004A0C20F0952311F00C943A0C0C94400CB6
:1019400011240C94850C0E94620C70F3959FC1F3D6
:10195000950F50E0551F629FF001729FBB27F00D5D
:10196000B11D639FAA27F00DB11DAA1F649F6627B2
:10197000B00DA11D661F829F2227B00DA11D621F01
:10198000739FB00DA11D621F839FA00D611D221FBB
:10199000749F3327A00D611D231F849F600D211D9F
:1019A000822F762F6A2F11249F5750409AF0F1F022
:1019B00088234AF0EE0FFF1FBB1F661F771F881F8B
:1019C00091505040A9F79E3F510580F00C943A0C7D
:1019D0000C94850C5F3FE4F3983ED4F3869577959D
:1019E0006795B795F795E7959F5FC1F7FE2B880F31
:1019F000911D9695879597F9089519F416F40C940E
:101A0000400C0C94430D0E946A0CB8F39923C9F35F
:101A1000B6F39F57550B87FF0E94510D0024A0E697
:101A200040EA900180585695979528F4805C660F9F
:101A3000771F881F20F026173707480730F4621BEE
:101A4000730B840B202931294A2BA69517940794F0
:101A5000202531254A2758F7660F771F881F20F069
:101A600026173707480730F4620B730B840B200DE1
:101A7000311D411DA09581F7B901842F9158880F20
:101A80009695879508959F3F31F0915020F4879562
:101A900077956795B795880F911D9695879597F9D6
:101AA000089591505040660F771F881FD2F7089510
:101AB000052E97FB1EF400940E946F0D57FD07D072
:101AC0000E947D0D07FC03D04EF40C946F0D5095D1
:101AD0004095309521953F4F4F4F5F4F089590951A
:101AE0008095709561957F4F8F4F9F4F0895EE0FB2
:101AF000FF1F0590F491E02D0994A1E21A2EAA1B74
:101B0000BB1BFD010DC0AA1FBB1FEE1FFF1FA217AD
:101B1000B307E407F50720F0A21BB30BE40BF50BAA
:101B2000661F771F881F991F1A9469F76095709533
:101B3000809590959B01AC01BD01CF01089581E096
:0C1B400090E0F8940C94A40DF894FFCFF2
:101B4C00000000004D01B600E4009A011501F300FD
:101B5C000701000000009E027002190451040304E6
:101B6C00CB03AA0376035503FF02BB0248656C6CDA
:061B7C006F000D0A0000DD
:00000001FF
